:1000000012C021C020C01FC01EC01DC01CC01BC00C
:100010001AC019C018C09BC016C026C114C013C096
:1000200012C011C010C011241FBECFE5D4E0DEBF46
:10003000CDBF20E0A0E6B0E001C01D92A838B20715
:10004000E1F712D01BC1DCCF009749F0E7EEF3E0F7
:100050003197F1F700C0000001970097B9F70895B4
:100060005D9BFECF8CB908958FE384BB8EE085BB8A
:1000700011BA8CEF82BB10BC89E189B988E18AB9D9
:100080008AB1806C8AB9789486E880BD109272003B
:10009000109271001092870010928600A89AAD9A73
:1000A00080ED97E0D1DFAD9880E49FE1CDDFC12CFA
:1000B000D12CEE24E394A89A88EC90E0C5DFA898B0
:1000C00080EB94E0C1DFF0B2F2FAFF24F0F81F2DCC
:1000D0001E25839B1260849902C0146005C0AB98F2
:1000E00088EC90E0B1DFAB9A859B1860869B10612D
:1000F000879B106220917100309172002130310590
:1001000081F485990EC087990CC084990AC0AB9878
:1001100088EC90E099DFAB9A109272001092710017
:10012000106420918600309187002130310529F438
:1001300010681092870010928600C12FD0E0CC1575
:10014000DD0509F4B8CF812F8BDF6E01B4CF1F928C
:100150000F920FB60F9211242F933F934F935F93FB
:100160006F937F938F939F93AF93BF93EF93FF937F
:100170008CB190917000E92FF0E0EC58FF4F808334
:100180009F5F909370008D3009F05DC08091740086
:10019000833539F481E090E0909387008093860066
:1001A0000EC0823539F481E090E090937200809324
:1001B000710005C0873519F488EB9BE045DF80911D
:1001C00074008C3489F480917500893431F4AD9ACF
:1001D00088EE93E039DFAD9807C08F3491F5AC9A83
:1001E00088EE93E031DFAC9880917400833449F558
:1001F00080917500803531F4AB9880E590E024DF84
:10020000AB9A1FC0823571F4AA9880E590E01CDF9C
:10021000AA9AAB9880E590E017DFAB9A8CE291E068
:1002200013DF0FC0823469F4A99880E590E00CDFF9
:10023000A99AAB9880E590E007DFAB9A80EA9FE04F
:1002400003DF10927000FF91EF91BF91AF919F91EA
:100250008F917F916F915F914F913F912F910F906F
:100260000FBE0F901F9018951F920F920FB60F920E
:1002700011240F900FBE0F901F901895F894FFCF88
:00000001FF
